{
  "contractName": "Calculadora",
  "abi": [
    {
      "inputs": [
        {
          "internalType": "uint256",
          "name": "a",
          "type": "uint256"
        },
        {
          "internalType": "uint256",
          "name": "b",
          "type": "uint256"
        }
      ],
      "name": "suma",
      "outputs": [
        {
          "internalType": "uint256",
          "name": "",
          "type": "uint256"
        }
      ],
      "stateMutability": "pure",
      "type": "function",
      "constant": true
    },
    {
      "inputs": [
        {
          "internalType": "uint256",
          "name": "a",
          "type": "uint256"
        },
        {
          "internalType": "uint256",
          "name": "b",
          "type": "uint256"
        }
      ],
      "name": "resta",
      "outputs": [
        {
          "internalType": "uint256",
          "name": "",
          "type": "uint256"
        }
      ],
      "stateMutability": "pure",
      "type": "function",
      "constant": true
    },
    {
      "inputs": [
        {
          "internalType": "uint256",
          "name": "a",
          "type": "uint256"
        },
        {
          "internalType": "uint256",
          "name": "b",
          "type": "uint256"
        }
      ],
      "name": "multiplica",
      "outputs": [
        {
          "internalType": "uint256",
          "name": "",
          "type": "uint256"
        }
      ],
      "stateMutability": "pure",
      "type": "function",
      "constant": true
    },
    {
      "inputs": [
        {
          "internalType": "uint256",
          "name": "a",
          "type": "uint256"
        },
        {
          "internalType": "uint256",
          "name": "b",
          "type": "uint256"
        }
      ],
      "name": "divide",
      "outputs": [
        {
          "internalType": "uint256",
          "name": "",
          "type": "uint256"
        }
      ],
      "stateMutability": "pure",
      "type": "function",
      "constant": true
    }
  ],
  "bytecode": "0x608060405234801561001057600080fd5b506101c4806100206000396000f3fe608060405234801561001057600080fd5b506004361061004c5760003560e01c806338e836df1461005157806352f294bc14610076578063b1b45b1b14610089578063f88e9fbf1461009c575b600080fd5b61006461005f3660046100e6565b6100af565b60405190815260200160405180910390f35b6100646100843660046100e6565b6100c2565b6100646100973660046100e6565b6100ce565b6100646100aa3660046100e6565b6100da565b60006100bb828461011e565b9392505050565b60006100bb828461013d565b60006100bb8284610154565b60006100bb828461016c565b600080604083850312156100f957600080fd5b50508035926020909101359150565b634e487b7160e01b600052601160045260246000fd5b600081600019048311821515161561013857610138610108565b500290565b60008282101561014f5761014f610108565b500390565b6000821982111561016757610167610108565b500190565b60008261018957634e487b7160e01b600052601260045260246000fd5b50049056fea2646970667358221220fc4c01e6440672aa33561e90380189816baac5620634e6aa5c369bc28dadaa3e64736f6c63430008090033",
  "immutableReferences": {},
  "source": "// SPDX-License-Identifier: MIT\npragma solidity ^0.8.9;\n                 \ncontract Calculadora {\n     function suma(uint a, uint b) public pure returns(uint){\n        return a + b;\n    }\n\n    function resta(uint a, uint b) public pure returns(uint){\n        return a - b;\n    }\n\n    function multiplica(uint a, uint b) public pure returns(uint){\n        return a * b;\n    }\n\n    function divide(uint a, uint b) public pure returns(uint){\n        return a / b;\n    }\n}",
  "sourcePath": "/media/alex93ide/Almacen_4TB/Cosas_Mias/AUTO/Proyectos/Programacion/Node/Multichain-Deployer/contracts/Calculadora.sol",
  "compiler": {
    "name": "solc",
    "version": "0.8.9+commit.e5eed63a.Emscripten.clang"
  },
  "schemaVersion": "3.4.10",
  "updatedAt": "2022-09-26T04:12:43.456Z",
  "networkType": "ethereum",
  "devdoc": {
    "kind": "dev",
    "methods": {},
    "version": 1
  },
  "userdoc": {
    "kind": "user",
    "methods": {},
    "version": 1
  }
}